{
  "contractName": "Parking",
  "abi": [
    {
      "inputs": [],
      "stateMutability": "nonpayable",
      "type": "constructor"
    },
    {
      "inputs": [
        {
          "internalType": "uint256",
          "name": "",
          "type": "uint256"
        }
      ],
      "name": "parkedVehicles",
      "outputs": [
        {
          "internalType": "string",
          "name": "",
          "type": "string"
        }
      ],
      "stateMutability": "view",
      "type": "function",
      "constant": true
    },
    {
      "inputs": [
        {
          "internalType": "string",
          "name": "",
          "type": "string"
        }
      ],
      "name": "vehicles",
      "outputs": [
        {
          "internalType": "uint256",
          "name": "id",
          "type": "uint256"
        },
        {
          "internalType": "string",
          "name": "vehicleno",
          "type": "string"
        },
        {
          "internalType": "string",
          "name": "name",
          "type": "string"
        },
        {
          "internalType": "string",
          "name": "time",
          "type": "string"
        },
        {
          "internalType": "string",
          "name": "isparked",
          "type": "string"
        },
        {
          "internalType": "bool",
          "name": "parked",
          "type": "bool"
        }
      ],
      "stateMutability": "view",
      "type": "function",
      "constant": true
    },
    {
      "inputs": [
        {
          "internalType": "string",
          "name": "_name",
          "type": "string"
        },
        {
          "internalType": "string",
          "name": "_vehicleno",
          "type": "string"
        },
        {
          "internalType": "string",
          "name": "_time",
          "type": "string"
        }
      ],
      "name": "token",
      "outputs": [],
      "stateMutability": "nonpayable",
      "type": "function"
    },
    {
      "inputs": [
        {
          "internalType": "string",
          "name": "name",
          "type": "string"
        }
      ],
      "name": "isparked",
      "outputs": [
        {
          "internalType": "bool",
          "name": "",
          "type": "bool"
        }
      ],
      "stateMutability": "view",
      "type": "function",
      "constant": true
    },
    {
      "inputs": [],
      "name": "getnum",
      "outputs": [
        {
          "internalType": "uint256",
          "name": "",
          "type": "uint256"
        }
      ],
      "stateMutability": "view",
      "type": "function",
      "constant": true
    },
    {
      "inputs": [
        {
          "internalType": "uint256",
          "name": "id",
          "type": "uint256"
        }
      ],
      "name": "getinfo",
      "outputs": [
        {
          "components": [
            {
              "internalType": "uint256",
              "name": "id",
              "type": "uint256"
            },
            {
              "internalType": "string",
              "name": "vehicleno",
              "type": "string"
            },
            {
              "internalType": "string",
              "name": "name",
              "type": "string"
            },
            {
              "internalType": "string",
              "name": "time",
              "type": "string"
            },
            {
              "internalType": "string",
              "name": "isparked",
              "type": "string"
            },
            {
              "internalType": "bool",
              "name": "parked",
              "type": "bool"
            }
          ],
          "internalType": "struct Parking.details",
          "name": "",
          "type": "tuple"
        }
      ],
      "stateMutability": "view",
      "type": "function",
      "constant": true
    }
  ],
  "bytecode": "0x608060405234801561001057600080fd5b506001600281905550600180819055506064600081905550611d1f806100376000396000f3fe608060405234801561001057600080fd5b50600436106100625760003560e01c806340c2f3a8146100675780635ced2a2c146100835780636595ece0146100b35780637d368873146100e357806392b926ee14610101578063976de5c514610131575b600080fd5b610081600480360381019061007c9190611791565b610166565b005b61009d60048036038101906100989190611838565b610431565b6040516100aa919061189c565b60405180910390f35b6100cd60048036038101906100c891906118ed565b6106f2565b6040516100da9190611a5e565b60405180910390f35b6100eb610a3e565b6040516100f89190611a8f565b60405180910390f35b61011b600480360381019061011691906118ed565b610a48565b6040516101289190611af4565b60405180910390f35b61014b60048036038101906101469190611838565b610ae8565b60405161015d96959493929190611b16565b60405180910390f35b60006004836040516101789190611bcf565b90815260200160405180910390206040518060c0016040529081600082015481526020016001820180546101ab90611c15565b80601f01602080910402602001604051908101604052809291908181526020018280546101d790611c15565b80156102245780601f106101f957610100808354040283529160200191610224565b820191906000526020600020905b81548152906001019060200180831161020757829003601f168201915b5050505050815260200160028201805461023d90611c15565b80601f016020809104026020016040519081016040528092919081815260200182805461026990611c15565b80156102b65780601f1061028b576101008083540402835291602001916102b6565b820191906000526020600020905b81548152906001019060200180831161029957829003601f168201915b505050505081526020016003820180546102cf90611c15565b80601f01602080910402602001604051908101604052809291908181526020018280546102fb90611c15565b80156103485780601f1061031d57610100808354040283529160200191610348565b820191906000526020600020905b81548152906001019060200180831161032b57829003601f168201915b5050505050815260200160048201805461036190611c15565b80601f016020809104026020016040519081016040528092919081815260200182805461038d90611c15565b80156103da5780601f106103af576101008083540402835291602001916103da565b820191906000526020600020905b8154815290600101906020018083116103bd57829003601f168201915b505050505081526020016005820160009054906101000a900460ff1615151515815250509050600115158160a001511515141561041f5761041a83610d67565b61042b565b61042a84848461112c565b5b50505050565b6000806004836040516104449190611bcf565b90815260200160405180910390206040518060c00160405290816000820154815260200160018201805461047790611c15565b80601f01602080910402602001604051908101604052809291908181526020018280546104a390611c15565b80156104f05780601f106104c5576101008083540402835291602001916104f0565b820191906000526020600020905b8154815290600101906020018083116104d357829003601f168201915b5050505050815260200160028201805461050990611c15565b80601f016020809104026020016040519081016040528092919081815260200182805461053590611c15565b80156105825780601f1061055757610100808354040283529160200191610582565b820191906000526020600020905b81548152906001019060200180831161056557829003601f168201915b5050505050815260200160038201805461059b90611c15565b80601f01602080910402602001604051908101604052809291908181526020018280546105c790611c15565b80156106145780601f106105e957610100808354040283529160200191610614565b820191906000526020600020905b8154815290600101906020018083116105f757829003601f168201915b5050505050815260200160048201805461062d90611c15565b80601f016020809104026020016040519081016040528092919081815260200182805461065990611c15565b80156106a65780601f1061067b576101008083540402835291602001916106a6565b820191906000526020600020905b81548152906001019060200180831161068957829003601f168201915b505050505081526020016005820160009054906101000a900460ff1615151515815250509050600115158160a00151151514156106e75760019150506106ed565b60009150505b919050565b6106fa61155c565b600060036000848152602001908152602001600020805461071a90611c15565b80601f016020809104026020016040519081016040528092919081815260200182805461074690611c15565b80156107935780601f1061076857610100808354040283529160200191610793565b820191906000526020600020905b81548152906001019060200180831161077657829003601f168201915b5050505050905060006004826040516107ac9190611bcf565b90815260200160405180910390206040518060c0016040529081600082015481526020016001820180546107df90611c15565b80601f016020809104026020016040519081016040528092919081815260200182805461080b90611c15565b80156108585780601f1061082d57610100808354040283529160200191610858565b820191906000526020600020905b81548152906001019060200180831161083b57829003601f168201915b5050505050815260200160028201805461087190611c15565b80601f016020809104026020016040519081016040528092919081815260200182805461089d90611c15565b80156108ea5780601f106108bf576101008083540402835291602001916108ea565b820191906000526020600020905b8154815290600101906020018083116108cd57829003601f168201915b5050505050815260200160038201805461090390611c15565b80601f016020809104026020016040519081016040528092919081815260200182805461092f90611c15565b801561097c5780601f106109515761010080835404028352916020019161097c565b820191906000526020600020905b81548152906001019060200180831161095f57829003601f168201915b5050505050815260200160048201805461099590611c15565b80601f01602080910402602001604051908101604052809291908181526020018280546109c190611c15565b8015610a0e5780601f106109e357610100808354040283529160200191610a0e565b820191906000526020600020905b8154815290600101906020018083116109f157829003601f168201915b505050505081526020016005820160009054906101000a900460ff16151515158152505090508092505050919050565b6000600254905090565b60036020528060005260406000206000915090508054610a6790611c15565b80601f0160208091040260200160405190810160405280929190818152602001828054610a9390611c15565b8015610ae05780601f10610ab557610100808354040283529160200191610ae0565b820191906000526020600020905b815481529060010190602001808311610ac357829003601f168201915b505050505081565b600481805160208101820180518482526020830160208501208183528095505050505050600091509050806000015490806001018054610b2790611c15565b80601f0160208091040260200160405190810160405280929190818152602001828054610b5390611c15565b8015610ba05780601f10610b7557610100808354040283529160200191610ba0565b820191906000526020600020905b815481529060010190602001808311610b8357829003601f168201915b505050505090806002018054610bb590611c15565b80601f0160208091040260200160405190810160405280929190818152602001828054610be190611c15565b8015610c2e5780601f10610c0357610100808354040283529160200191610c2e565b820191906000526020600020905b815481529060010190602001808311610c1157829003601f168201915b505050505090806003018054610c4390611c15565b80601f0160208091040260200160405190810160405280929190818152602001828054610c6f90611c15565b8015610cbc5780601f10610c9157610100808354040283529160200191610cbc565b820191906000526020600020905b815481529060010190602001808311610c9f57829003601f168201915b505050505090806004018054610cd190611c15565b80601f0160208091040260200160405190810160405280929190818152602001828054610cfd90611c15565b8015610d4a5780601f10610d1f57610100808354040283529160200191610d4a565b820191906000526020600020905b815481529060010190602001808311610d2d57829003601f168201915b5050505050908060050160009054906101000a900460ff16905086565b6000600482604051610d799190611bcf565b90815260200160405180910390206040518060c001604052908160008201548152602001600182018054610dac90611c15565b80601f0160208091040260200160405190810160405280929190818152602001828054610dd890611c15565b8015610e255780601f10610dfa57610100808354040283529160200191610e25565b820191906000526020600020905b815481529060010190602001808311610e0857829003601f168201915b50505050508152602001600282018054610e3e90611c15565b80601f0160208091040260200160405190810160405280929190818152602001828054610e6a90611c15565b8015610eb75780601f10610e8c57610100808354040283529160200191610eb7565b820191906000526020600020905b815481529060010190602001808311610e9a57829003601f168201915b50505050508152602001600382018054610ed090611c15565b80601f0160208091040260200160405190810160405280929190818152602001828054610efc90611c15565b8015610f495780601f10610f1e57610100808354040283529160200191610f49565b820191906000526020600020905b815481529060010190602001808311610f2c57829003601f168201915b50505050508152602001600482018054610f6290611c15565b80601f0160208091040260200160405190810160405280929190818152602001828054610f8e90611c15565b8015610fdb5780601f10610fb057610100808354040283529160200191610fdb565b820191906000526020600020905b815481529060010190602001808311610fbe57829003601f168201915b505050505081526020016005820160009054906101000a900460ff16151515158152505090506040518060400160405280600381526020017f4f55540000000000000000000000000000000000000000000000000000000000815250816080018190525060008160a00190151590811515815250506001600081548092919061106390611c76565b9190505550806004836040516110799190611bcf565b90815260200160405180910390206000820151816000015560208201518160010190805190602001906110ad929190611594565b5060408201518160020190805190602001906110ca929190611594565b5060608201518160030190805190602001906110e7929190611594565b506080820151816004019080519060200190611104929190611594565b5060a08201518160050160006101000a81548160ff0219169083151502179055509050505050565b600060048360405161113e9190611bcf565b90815260200160405180910390206040518060c00160405290816000820154815260200160018201805461117190611c15565b80601f016020809104026020016040519081016040528092919081815260200182805461119d90611c15565b80156111ea5780601f106111bf576101008083540402835291602001916111ea565b820191906000526020600020905b8154815290600101906020018083116111cd57829003601f168201915b5050505050815260200160028201805461120390611c15565b80601f016020809104026020016040519081016040528092919081815260200182805461122f90611c15565b801561127c5780601f106112515761010080835404028352916020019161127c565b820191906000526020600020905b81548152906001019060200180831161125f57829003601f168201915b5050505050815260200160038201805461129590611c15565b80601f01602080910402602001604051908101604052809291908181526020018280546112c190611c15565b801561130e5780601f106112e35761010080835404028352916020019161130e565b820191906000526020600020905b8154815290600101906020018083116112f157829003601f168201915b5050505050815260200160048201805461132790611c15565b80601f016020809104026020016040519081016040528092919081815260200182805461135390611c15565b80156113a05780601f10611375576101008083540402835291602001916113a0565b820191906000526020600020905b81548152906001019060200180831161138357829003601f168201915b505050505081526020016005820160009054906101000a900460ff16151515158152505090508260036000600254815260200190815260200160002090805190602001906113ef929190611594565b506002548160000181815250508381604001819052508281602001819052508181606001819052506040518060400160405280600281526020017f494e000000000000000000000000000000000000000000000000000000000000815250816080018190525060018160a0019015159081151581525050806004846040516114779190611bcf565b90815260200160405180910390206000820151816000015560208201518160010190805190602001906114ab929190611594565b5060408201518160020190805190602001906114c8929190611594565b5060608201518160030190805190602001906114e5929190611594565b506080820151816004019080519060200190611502929190611594565b5060a08201518160050160006101000a81548160ff0219169083151502179055509050506001600081548092919061153990611ca0565b91905055506002600081548092919061155190611ca0565b919050555050505050565b6040518060c0016040528060008152602001606081526020016060815260200160608152602001606081526020016000151581525090565b8280546115a090611c15565b90600052602060002090601f0160209004810192826115c25760008555611609565b82601f106115db57805160ff1916838001178555611609565b82800160010185558215611609579182015b828111156116085782518255916020019190600101906115ed565b5b509050611616919061161a565b5090565b5b8082111561163357600081600090555060010161161b565b5090565b6000604051905090565b600080fd5b600080fd5b600080fd5b600080fd5b6000601f19601f8301169050919050565b7f4e487b7100000000000000000000000000000000000000000000000000000000600052604160045260246000fd5b61169e82611655565b810181811067ffffffffffffffff821117156116bd576116bc611666565b5b80604052505050565b60006116d0611637565b90506116dc8282611695565b919050565b600067ffffffffffffffff8211156116fc576116fb611666565b5b61170582611655565b9050602081019050919050565b82818337600083830152505050565b600061173461172f846116e1565b6116c6565b9050828152602081018484840111156117505761174f611650565b5b61175b848285611712565b509392505050565b600082601f8301126117785761177761164b565b5b8135611788848260208601611721565b91505092915050565b6000806000606084860312156117aa576117a9611641565b5b600084013567ffffffffffffffff8111156117c8576117c7611646565b5b6117d486828701611763565b935050602084013567ffffffffffffffff8111156117f5576117f4611646565b5b61180186828701611763565b925050604084013567ffffffffffffffff81111561182257611821611646565b5b61182e86828701611763565b9150509250925092565b60006020828403121561184e5761184d611641565b5b600082013567ffffffffffffffff81111561186c5761186b611646565b5b61187884828501611763565b91505092915050565b60008115159050919050565b61189681611881565b82525050565b60006020820190506118b1600083018461188d565b92915050565b6000819050919050565b6118ca816118b7565b81146118d557600080fd5b50565b6000813590506118e7816118c1565b92915050565b60006020828403121561190357611902611641565b5b6000611911848285016118d8565b91505092915050565b611923816118b7565b82525050565b600081519050919050565b600082825260208201905092915050565b60005b83811015611963578082015181840152602081019050611948565b83811115611972576000848401525b50505050565b600061198382611929565b61198d8185611934565b935061199d818560208601611945565b6119a681611655565b840191505092915050565b6119ba81611881565b82525050565b600060c0830160008301516119d8600086018261191a565b50602083015184820360208601526119f08282611978565b91505060408301518482036040860152611a0a8282611978565b91505060608301518482036060860152611a248282611978565b91505060808301518482036080860152611a3e8282611978565b91505060a0830151611a5360a08601826119b1565b508091505092915050565b60006020820190508181036000830152611a7881846119c0565b905092915050565b611a89816118b7565b82525050565b6000602082019050611aa46000830184611a80565b92915050565b600082825260208201905092915050565b6000611ac682611929565b611ad08185611aaa565b9350611ae0818560208601611945565b611ae981611655565b840191505092915050565b60006020820190508181036000830152611b0e8184611abb565b905092915050565b600060c082019050611b2b6000830189611a80565b8181036020830152611b3d8188611abb565b90508181036040830152611b518187611abb565b90508181036060830152611b658186611abb565b90508181036080830152611b798185611abb565b9050611b8860a083018461188d565b979650505050505050565b600081905092915050565b6000611ba982611929565b611bb38185611b93565b9350611bc3818560208601611945565b80840191505092915050565b6000611bdb8284611b9e565b915081905092915050565b7f4e487b7100000000000000000000000000000000000000000000000000000000600052602260045260246000fd5b60006002820490506001821680611c2d57607f821691505b60208210811415611c4157611c40611be6565b5b50919050565b7f4e487b7100000000000000000000000000000000000000000000000000000000600052601160045260246000fd5b6000611c81826118b7565b91506000821415611c9557611c94611c47565b5b600182039050919050565b6000611cab826118b7565b91507fffffffffffffffffffffffffffffffffffffffffffffffffffffffffffffffff821415611cde57611cdd611c47565b5b60018201905091905056fea26469706673582212206efb003453ae8859a2242a0ebbce20a659c326e2d207c6b8fa31a1127e6deaff64736f6c634300080b0033",
  "immutableReferences": {},
  "source": "// SPDX-License-Identifier: MIT\r\npragma solidity ^0.8.0;\r\n\r\n\r\ncontract Parking {\r\n\r\n    uint TotalSlots;\r\n    uint curId;\r\n    uint carId;\r\n    constructor () {\r\n        carId=1;\r\n        curId = 1;\r\n        TotalSlots = 100;\r\n    }\r\n\r\n    struct details{\r\n        uint id;\r\n        string vehicleno;\r\n        string name;\r\n        string time;\r\n        string isparked;\r\n        bool parked;\r\n    }\r\n\r\n    mapping (uint => string) public parkedVehicles;\r\n    mapping (string => details) public vehicles;\r\n\r\n    function token (string memory _name, string memory _vehicleno , string memory _time) public {\r\n\r\n        details memory _new = vehicles[_vehicleno];\r\n\r\n        if(_new.parked==true){\r\n            exit(_vehicleno);\r\n        }\r\n\r\n        else {\r\n            entry(_name,_vehicleno,_time);\r\n        }\r\n\r\n    }\r\n\r\n    function isparked(string memory name) public view returns( bool){\r\n        details memory _new = vehicles[name];\r\n\r\n        if(_new.parked==true) return true;\r\n        else return false;\r\n    }\r\n\r\n    function entry (string memory _name, string memory _vehicleno , string memory _time) private {\r\n        details memory _new = vehicles[_vehicleno];\r\n\r\n        parkedVehicles[carId] = _vehicleno;\r\n\r\n            _new.id = carId;\r\n            _new.name = _name;\r\n            _new.vehicleno = _vehicleno;\r\n            _new.time = _time;\r\n            _new.isparked = \"IN\";\r\n            _new.parked = true;\r\n            vehicles[_vehicleno] = _new;\r\n            curId++;\r\n            carId++;\r\n    }\r\n\r\n    function exit (string memory _vehicleno) private {\r\n        details memory _new = vehicles[_vehicleno];\r\n\r\n\r\n            _new.isparked = \"OUT\";\r\n            _new.parked = false;\r\n            curId--;\r\n            vehicles[_vehicleno] = _new;\r\n    }\r\n\r\n    function getnum () public view returns (uint){\r\n        return carId;\r\n    }\r\n\r\n    function getinfo (uint id) public view returns (details memory){\r\n        string memory _name = parkedVehicles[id];\r\n\r\n        details memory cur = vehicles[_name];\r\n\r\n        return cur;\r\n    }\r\n   \r\n}",
  "sourcePath": "D:\\projects\\hada\\Web3-NFT-Marketplace-Auction\\contracts\\Parking.sol",
  "compiler": {
    "name": "solc",
    "version": "0.8.11+commit.d7f03943.Emscripten.clang"
  },
  "schemaVersion": "3.4.8",
  "updatedAt": "2022-08-27T09:17:54.711Z",
  "networkType": "ethereum",
  "devdoc": {
    "kind": "dev",
    "methods": {},
    "version": 1
  },
  "userdoc": {
    "kind": "user",
    "methods": {},
    "version": 1
  }
}